{
  "_format": "hh-sol-artifact-1",
  "contractName": "MerkleVerification",
  "sourceName": "contracts/Merkleverifier.sol",
  "abi": [
    {
      "inputs": [],
      "stateMutability": "nonpayable",
      "type": "constructor"
    },
    {
      "anonymous": false,
      "inputs": [
        {
          "indexed": true,
          "internalType": "bytes32",
          "name": "newMerkleRoot",
          "type": "bytes32"
        }
      ],
      "name": "MerkleRootUpdated",
      "type": "event"
    },
    {
      "inputs": [],
      "name": "getMerkleRoot",
      "outputs": [
        {
          "internalType": "bytes32",
          "name": "",
          "type": "bytes32"
        }
      ],
      "stateMutability": "view",
      "type": "function"
    },
    {
      "inputs": [],
      "name": "merkleRoot",
      "outputs": [
        {
          "internalType": "bytes32",
          "name": "",
          "type": "bytes32"
        }
      ],
      "stateMutability": "view",
      "type": "function"
    },
    {
      "inputs": [],
      "name": "owner",
      "outputs": [
        {
          "internalType": "address",
          "name": "",
          "type": "address"
        }
      ],
      "stateMutability": "view",
      "type": "function"
    },
    {
      "inputs": [
        {
          "internalType": "bytes32",
          "name": "_merkleRoot",
          "type": "bytes32"
        }
      ],
      "name": "setMerkleRoot",
      "outputs": [],
      "stateMutability": "nonpayable",
      "type": "function"
    },
    {
      "inputs": [
        {
          "internalType": "bytes32",
          "name": "transactionHash",
          "type": "bytes32"
        },
        {
          "internalType": "bytes32[]",
          "name": "proof",
          "type": "bytes32[]"
        }
      ],
      "name": "verifyTransaction",
      "outputs": [
        {
          "internalType": "bool",
          "name": "",
          "type": "bool"
        }
      ],
      "stateMutability": "view",
      "type": "function"
    }
  ],
  "bytecode": "0x608060405234801561001057600080fd5b50336000806101000a81548173ffffffffffffffffffffffffffffffffffffffff021916908373ffffffffffffffffffffffffffffffffffffffff16021790555061055f806100606000396000f3fe608060405234801561001057600080fd5b50600436106100575760003560e01c80632eb4a7ab1461005c578063495906571461007a5780637cb64759146100985780638c78acc5146100b45780638da5cb5b146100e4575b600080fd5b610064610102565b60405161007191906103c3565b60405180910390f35b610082610108565b60405161008f91906103c3565b60405180910390f35b6100b260048036038101906100ad919061029c565b610112565b005b6100ce60048036038101906100c991906102c5565b61011c565b6040516100db91906103a8565b60405180910390f35b6100ec6101ae565b6040516100f9919061038d565b60405180910390f35b60015481565b6000600154905090565b8060018190555050565b60008084905060005b8484905081101561019e576101898286868481811061016d577f4e487b7100000000000000000000000000000000000000000000000000000000600052603260045260246000fd5b9050602002013560006002856101839190610483565b146101d2565b9150808061019690610430565b915050610125565b5060015481149150509392505050565b60008054906101000a900473ffffffffffffffffffffffffffffffffffffffff1681565b6000811561020a5783836040516020016101ed929190610361565b604051602081830303815290604052805190602001209050610236565b828460405160200161021d929190610361565b6040516020818303038152906040528051906020012090505b9392505050565b60008083601f84011261024f57600080fd5b8235905067ffffffffffffffff81111561026857600080fd5b60208301915083602082028301111561028057600080fd5b9250929050565b60008135905061029681610512565b92915050565b6000602082840312156102ae57600080fd5b60006102bc84828501610287565b91505092915050565b6000806000604084860312156102da57600080fd5b60006102e886828701610287565b935050602084013567ffffffffffffffff81111561030557600080fd5b6103118682870161023d565b92509250509250925092565b610326816103de565b82525050565b610335816103f0565b82525050565b610344816103fc565b82525050565b61035b610356826103fc565b610479565b82525050565b600061036d828561034a565b60208201915061037d828461034a565b6020820191508190509392505050565b60006020820190506103a2600083018461031d565b92915050565b60006020820190506103bd600083018461032c565b92915050565b60006020820190506103d8600083018461033b565b92915050565b60006103e982610406565b9050919050565b60008115159050919050565b6000819050919050565b600073ffffffffffffffffffffffffffffffffffffffff82169050919050565b6000819050919050565b600061043b82610426565b91507fffffffffffffffffffffffffffffffffffffffffffffffffffffffffffffffff82141561046e5761046d6104b4565b5b600182019050919050565b6000819050919050565b600061048e82610426565b915061049983610426565b9250826104a9576104a86104e3565b5b828206905092915050565b7f4e487b7100000000000000000000000000000000000000000000000000000000600052601160045260246000fd5b7f4e487b7100000000000000000000000000000000000000000000000000000000600052601260045260246000fd5b61051b816103fc565b811461052657600080fd5b5056fea264697066735822122018aa70807c1c5e1369bfeeffc46fea20fda59c3854673d3cbbb90e4e90b05d2964736f6c63430008000033",
  "linkReferences": {},
  "deployedLinkReferences": {}
}